{
  "_format": "hh-sol-artifact-1",
  "contractName": "ArenaEscrow",
  "sourceName": "contracts/ArenaEscrow.sol",
  "abi": [
    {
      "inputs": [
        {
          "internalType": "address",
          "name": "_usdt",
          "type": "address"
        },
        {
          "internalType": "address",
          "name": "_server",
          "type": "address"
        },
        {
          "internalType": "address",
          "name": "_house",
          "type": "address"
        }
      ],
      "stateMutability": "nonpayable",
      "type": "constructor"
    },
    {
      "inputs": [],
      "name": "AlreadyDeposited",
      "type": "error"
    },
    {
      "inputs": [],
      "name": "AlreadySettled",
      "type": "error"
    },
    {
      "inputs": [],
      "name": "BadSignature",
      "type": "error"
    },
    {
      "inputs": [],
      "name": "NotAPlayer",
      "type": "error"
    },
    {
      "inputs": [],
      "name": "NotAuthorized",
      "type": "error"
    },
    {
      "inputs": [],
      "name": "TooEarlyForEmergency",
      "type": "error"
    },
    {
      "inputs": [],
      "name": "TooFewPlayers",
      "type": "error"
    },
    {
      "inputs": [],
      "name": "TransferFailed",
      "type": "error"
    },
    {
      "inputs": [],
      "name": "WrongEntryFee",
      "type": "error"
    },
    {
      "anonymous": false,
      "inputs": [
        {
          "indexed": true,
          "internalType": "bytes32",
          "name": "roomId",
          "type": "bytes32"
        },
        {
          "indexed": true,
          "internalType": "address",
          "name": "player",
          "type": "address"
        },
        {
          "indexed": false,
          "internalType": "uint256",
          "name": "amount",
          "type": "uint256"
        }
      ],
      "name": "Deposited",
      "type": "event"
    },
    {
      "anonymous": false,
      "inputs": [
        {
          "indexed": true,
          "internalType": "bytes32",
          "name": "roomId",
          "type": "bytes32"
        },
        {
          "indexed": true,
          "internalType": "address",
          "name": "player",
          "type": "address"
        },
        {
          "indexed": false,
          "internalType": "uint256",
          "name": "amount",
          "type": "uint256"
        }
      ],
      "name": "Refunded",
      "type": "event"
    },
    {
      "anonymous": false,
      "inputs": [
        {
          "indexed": true,
          "internalType": "bytes32",
          "name": "roomId",
          "type": "bytes32"
        },
        {
          "indexed": true,
          "internalType": "address",
          "name": "winner",
          "type": "address"
        },
        {
          "indexed": false,
          "internalType": "uint256",
          "name": "payout",
          "type": "uint256"
        },
        {
          "indexed": false,
          "internalType": "uint256",
          "name": "rake",
          "type": "uint256"
        }
      ],
      "name": "Released",
      "type": "event"
    },
    {
      "inputs": [],
      "name": "RAKE_BPS",
      "outputs": [
        {
          "internalType": "uint16",
          "name": "",
          "type": "uint16"
        }
      ],
      "stateMutability": "view",
      "type": "function"
    },
    {
      "inputs": [],
      "name": "REFUND_TIMEOUT",
      "outputs": [
        {
          "internalType": "uint256",
          "name": "",
          "type": "uint256"
        }
      ],
      "stateMutability": "view",
      "type": "function"
    },
    {
      "inputs": [
        {
          "internalType": "bytes32",
          "name": "roomId",
          "type": "bytes32"
        },
        {
          "internalType": "address",
          "name": "winner",
          "type": "address"
        },
        {
          "internalType": "bytes",
          "name": "sig",
          "type": "bytes"
        }
      ],
      "name": "claim",
      "outputs": [],
      "stateMutability": "nonpayable",
      "type": "function"
    },
    {
      "inputs": [
        {
          "internalType": "bytes32",
          "name": "roomId",
          "type": "bytes32"
        },
        {
          "internalType": "bytes",
          "name": "sig",
          "type": "bytes"
        }
      ],
      "name": "claimRefund",
      "outputs": [],
      "stateMutability": "nonpayable",
      "type": "function"
    },
    {
      "inputs": [
        {
          "internalType": "bytes32",
          "name": "roomId",
          "type": "bytes32"
        },
        {
          "internalType": "uint256",
          "name": "entryFee",
          "type": "uint256"
        }
      ],
      "name": "deposit",
      "outputs": [],
      "stateMutability": "nonpayable",
      "type": "function"
    },
    {
      "inputs": [
        {
          "internalType": "bytes32",
          "name": "roomId",
          "type": "bytes32"
        }
      ],
      "name": "emergencyRefund",
      "outputs": [],
      "stateMutability": "nonpayable",
      "type": "function"
    },
    {
      "inputs": [
        {
          "internalType": "bytes32",
          "name": "roomId",
          "type": "bytes32"
        },
        {
          "internalType": "address",
          "name": "player",
          "type": "address"
        }
      ],
      "name": "hasDeposited",
      "outputs": [
        {
          "internalType": "bool",
          "name": "",
          "type": "bool"
        }
      ],
      "stateMutability": "view",
      "type": "function"
    },
    {
      "inputs": [],
      "name": "house",
      "outputs": [
        {
          "internalType": "address",
          "name": "",
          "type": "address"
        }
      ],
      "stateMutability": "view",
      "type": "function"
    },
    {
      "inputs": [],
      "name": "owner",
      "outputs": [
        {
          "internalType": "address",
          "name": "",
          "type": "address"
        }
      ],
      "stateMutability": "view",
      "type": "function"
    },
    {
      "inputs": [
        {
          "internalType": "bytes32",
          "name": "roomId",
          "type": "bytes32"
        }
      ],
      "name": "refund",
      "outputs": [],
      "stateMutability": "nonpayable",
      "type": "function"
    },
    {
      "inputs": [
        {
          "internalType": "bytes32",
          "name": "roomId",
          "type": "bytes32"
        },
        {
          "internalType": "address",
          "name": "winner",
          "type": "address"
        }
      ],
      "name": "release",
      "outputs": [],
      "stateMutability": "nonpayable",
      "type": "function"
    },
    {
      "inputs": [
        {
          "internalType": "bytes32",
          "name": "roomId",
          "type": "bytes32"
        }
      ],
      "name": "roomInfo",
      "outputs": [
        {
          "internalType": "uint256",
          "name": "entryFee",
          "type": "uint256"
        },
        {
          "internalType": "uint256",
          "name": "playerCount",
          "type": "uint256"
        },
        {
          "internalType": "bool",
          "name": "settled",
          "type": "bool"
        },
        {
          "internalType": "address[]",
          "name": "players",
          "type": "address[]"
        }
      ],
      "stateMutability": "view",
      "type": "function"
    },
    {
      "inputs": [],
      "name": "server",
      "outputs": [
        {
          "internalType": "address",
          "name": "",
          "type": "address"
        }
      ],
      "stateMutability": "view",
      "type": "function"
    },
    {
      "inputs": [
        {
          "internalType": "address",
          "name": "_house",
          "type": "address"
        }
      ],
      "name": "setHouse",
      "outputs": [],
      "stateMutability": "nonpayable",
      "type": "function"
    },
    {
      "inputs": [
        {
          "internalType": "address",
          "name": "_server",
          "type": "address"
        }
      ],
      "name": "setServer",
      "outputs": [],
      "stateMutability": "nonpayable",
      "type": "function"
    },
    {
      "inputs": [
        {
          "internalType": "address",
          "name": "a",
          "type": "address"
        }
      ],
      "name": "transferOwnership",
      "outputs": [],
      "stateMutability": "nonpayable",
      "type": "function"
    },
    {
      "inputs": [],
      "name": "usdt",
      "outputs": [
        {
          "internalType": "contract IERC20",
          "name": "",
          "type": "address"
        }
      ],
      "stateMutability": "view",
      "type": "function"
    }
  ],
  "bytecode": "0x60a06040523480156200001157600080fd5b506040516200157138038062001571833981016040819052620000349162000098565b600080546001600160a01b031990811633179091556001600160a01b03938416608052600180549385169382169390931790925560028054919093169116179055620000e2565b80516001600160a01b03811681146200009357600080fd5b919050565b600080600060608486031215620000ae57600080fd5b620000b9846200007b565b9250620000c9602085016200007b565b9150620000d9604085016200007b565b90509250925092565b6080516114426200012f6000396000818161016501528181610444015281816104f9015281816106df01528181610a5d01528181610de801528181610e9d0152610f8b01526114426000f3fe608060405234801561001057600080fd5b506004361061010b5760003560e01c8063860f6471116100a2578063f19a0b5411610071578063f19a0b5414610255578063f2fde38b14610268578063f7820de61461027b578063fd922a421461028e578063ff9b3acf146102a157600080fd5b8063860f6471146102005780638da5cb5b14610213578063d92e0af214610226578063e9a892c01461023957600080fd5b806339523640116100de578063395236401461019f5780637249fbb6146101c25780637d57900a146101d55780637f2a8a80146101ed57600080fd5b806305ce4d51146101105780631bbdcfd3146101385780631de26e161461014d5780632f48ab7d14610160575b600080fd5b61012361011e36600461117e565b6102b4565b60405190151581526020015b60405180910390f35b61014b61014636600461117e565b6102e3565b005b61014b61015b3660046111aa565b6105d3565b6101877f000000000000000000000000000000000000000000000000000000000000000081565b6040516001600160a01b03909116815260200161012f565b6101b26101ad3660046111cc565b6107ad565b60405161012f94939291906111e5565b61014b6101d03660046111cc565b61083e565b6101df6201518081565b60405190815260200161012f565b61014b6101fb36600461124e565b6108e5565b61014b61020e3660046112b9565b610932565b600054610187906001600160a01b031681565b61014b6102343660046111cc565b610b2f565b6102426105dc81565b60405161ffff909116815260200161012f565b61014b61026336600461124e565b610ba8565b61014b61027636600461124e565b610bf5565b61014b610289366004611305565b610c42565b600154610187906001600160a01b031681565b600254610187906001600160a01b031681565b60008281526003602081815260408084206001600160a01b0386168552909201905290205460ff165b92915050565b6001546001600160a01b0316331480159061030957506000546001600160a01b03163314155b156103275760405163ea8e4eb560e01b815260040160405180910390fd5b6000828152600360205260409020600481015460ff168061035157506004810154610100900460ff165b1561036e5760405162560ff960e81b815260040160405180910390fd5b600281810154101561039357604051634a7d703b60e11b815260040160405180910390fd5b6001600160a01b038216600090815260038201602052604090205460ff166103ce5760405163abca351760e01b815260040160405180910390fd5b60048101805460ff19166001179055600281015481546000916103f091611375565b905060006127106104036105dc84611375565b61040d919061138c565b9050600061041b82846113ae565b60405163a9059cbb60e01b81526001600160a01b038781166004830152602482018390529192507f00000000000000000000000000000000000000000000000000000000000000009091169063a9059cbb906044016020604051808303816000875af115801561048f573d6000803e3d6000fd5b505050506040513d601f19601f820116820180604052508101906104b391906113c1565b6104d0576040516312171d8360e31b815260040160405180910390fd5b60025460405163a9059cbb60e01b81526001600160a01b039182166004820152602481018490527f00000000000000000000000000000000000000000000000000000000000000009091169063a9059cbb906044016020604051808303816000875af1158015610544573d6000803e3d6000fd5b505050506040513d601f19601f8201168201806040525081019061056891906113c1565b610585576040516312171d8360e31b815260040160405180910390fd5b60408051828152602081018490526001600160a01b0387169188917fbaa21fb6000fbb6d014fac9cd1b0726799e6f352a967157a59f4b2da8ef32211910160405180910390a3505050505050565b6000828152600360205260409020600481015460ff16156106065760405162560ff960e81b815260040160405180910390fd5b33600090815260038201602052604090205460ff16156106395760405163d5a8211560e01b815260040160405180910390fd5b600281015460000361065357818155426001820155610674565b8054821461067457604051635425860560e01b815260040160405180910390fd5b600281018054600180820183556000928352602080842090920180546001600160a01b0319163390811790915580845260038501909252604092839020805460ff1916909117905590516323b872dd60e01b81526004810191909152306024820152604481018390527f00000000000000000000000000000000000000000000000000000000000000006001600160a01b0316906323b872dd906064016020604051808303816000875af1158015610730573d6000803e3d6000fd5b505050506040513d601f19601f8201168201806040525081019061075491906113c1565b610771576040516312171d8360e31b815260040160405180910390fd5b604051828152339084907f87d4c0b5e30d6808bc8a94ba1c4d839b29d664151551a31753387ee9ef48429b9060200160405180910390a3505050565b60008181526003602090815260408083208054600282018054600484015485518288028101880190965281865287968796606096959460ff90931692918290859083018282801561082757602002820191906000526020600020905b81546001600160a01b03168152600190910190602001808311610809575b505050505090509450945094509450509193509193565b6001546001600160a01b0316331480159061086457506000546001600160a01b03163314155b156108825760405163ea8e4eb560e01b815260040160405180910390fd5b6000818152600360205260409020600481015460ff16806108ac57506004810154610100900460ff165b156108c95760405162560ff960e81b815260040160405180910390fd5b60048101805460ff191660011790556108e181610f7a565b5050565b6000546001600160a01b031633146109105760405163ea8e4eb560e01b815260040160405180910390fd5b600280546001600160a01b0319166001600160a01b0392909216919091179055565b6000838152600360205260409020600481015460ff16156109655760405162560ff960e81b815260040160405180910390fd5b33600090815260038201602052604090205460ff166109975760405163abca351760e01b815260040160405180910390fd5b6000846040516020016109bb9181526514915195539160d21b602082015260260190565b60408051601f1981840301815291905280516020909101206001549091506001600160a01b03166109ed828686611053565b6001600160a01b031614610a1457604051635cd5d23360e01b815260040160405180910390fd5b6004828101805461ff00191661010017905533600081815260038501602052604090819020805460ff191690558454905163a9059cbb60e01b81529283019190915260248201527f00000000000000000000000000000000000000000000000000000000000000006001600160a01b03169063a9059cbb906044016020604051808303816000875af1158015610aae573d6000803e3d6000fd5b505050506040513d601f19601f82011682018060405250810190610ad291906113c1565b610aef576040516312171d8360e31b815260040160405180910390fd5b8154604051908152339086907ff552ca82e113ac3c539c3d617f29fcd19c172a0c75dad017555c9e109f7fe1839060200160405180910390a35050505050565b6000818152600360205260409020600481015460ff1680610b5957506004810154610100900460ff165b15610b765760405162560ff960e81b815260040160405180910390fd5b620151808160010154610b8991906113e3565b4210156108c9576040516238692f60e71b815260040160405180910390fd5b6000546001600160a01b03163314610bd35760405163ea8e4eb560e01b815260040160405180910390fd5b600180546001600160a01b0319166001600160a01b0392909216919091179055565b6000546001600160a01b03163314610c205760405163ea8e4eb560e01b815260040160405180910390fd5b600080546001600160a01b0319166001600160a01b0392909216919091179055565b6000848152600360205260409020600481015460ff1680610c6c57506004810154610100900460ff165b15610c895760405162560ff960e81b815260040160405180910390fd5b6002818101541015610cae57604051634a7d703b60e11b815260040160405180910390fd5b6001600160a01b038416600090815260038201602052604090205460ff16610ce95760405163abca351760e01b815260040160405180910390fd5b60008585604051602001610d1992919091825260601b6bffffffffffffffffffffffff1916602082015260340190565b60408051601f1981840301815291905280516020909101206001549091506001600160a01b0316610d4b828686611053565b6001600160a01b031614610d7257604051635cd5d23360e01b815260040160405180910390fd5b60048201805460ff1916600117905560028201548254600091610d9491611375565b90506000612710610da76105dc84611375565b610db1919061138c565b90506000610dbf82846113ae565b60405163a9059cbb60e01b81526001600160a01b038a81166004830152602482018390529192507f00000000000000000000000000000000000000000000000000000000000000009091169063a9059cbb906044016020604051808303816000875af1158015610e33573d6000803e3d6000fd5b505050506040513d601f19601f82011682018060405250810190610e5791906113c1565b610e74576040516312171d8360e31b815260040160405180910390fd5b60025460405163a9059cbb60e01b81526001600160a01b039182166004820152602481018490527f00000000000000000000000000000000000000000000000000000000000000009091169063a9059cbb906044016020604051808303816000875af1158015610ee8573d6000803e3d6000fd5b505050506040513d601f19601f82011682018060405250810190610f0c91906113c1565b610f29576040516312171d8360e31b815260040160405180910390fd5b60408051828152602081018490526001600160a01b038a16918b917fbaa21fb6000fbb6d014fac9cd1b0726799e6f352a967157a59f4b2da8ef32211910160405180910390a3505050505050505050565b60005b60028201548110156108e1577f00000000000000000000000000000000000000000000000000000000000000006001600160a01b031663a9059cbb836002018381548110610fcd57610fcd6113f6565b600091825260209091200154845460405160e084901b6001600160e01b03191681526001600160a01b03909216600483015260248201526044016020604051808303816000875af1158015611026573d6000803e3d6000fd5b505050506040513d601f19601f8201168201806040525081019061104a91906113c1565b50600101610f7d565b6040517f19457468657265756d205369676e6564204d6573736167653a0a3332000000006020820152603c81018490526000908190605c0160408051601f1981840301815291905280516020909101209050604183146110ea5760405162461bcd60e51b815260206004820152600e60248201526d084c2c840e6d2ce40d8cadccee8d60931b604482015260640160405180910390fd5b60408051600080825260208083018085528590528784013590911a92820183905286356060830181905290870135608083018190529092909160019060a0016020604051602081039080840390855afa15801561114b573d6000803e3d6000fd5b5050604051601f1901519998505050505050505050565b80356001600160a01b038116811461117957600080fd5b919050565b6000806040838503121561119157600080fd5b823591506111a160208401611162565b90509250929050565b600080604083850312156111bd57600080fd5b50508035926020909101359150565b6000602082840312156111de57600080fd5b5035919050565b600060808201868352602086602085015285151560408501526080606085015281855180845260a08601915060208701935060005b8181101561123f5784516001600160a01b03168352938301939183019160010161121a565b50909998505050505050505050565b60006020828403121561126057600080fd5b61126982611162565b9392505050565b60008083601f84011261128257600080fd5b50813567ffffffffffffffff81111561129a57600080fd5b6020830191508360208285010111156112b257600080fd5b9250929050565b6000806000604084860312156112ce57600080fd5b83359250602084013567ffffffffffffffff8111156112ec57600080fd5b6112f886828701611270565b9497909650939450505050565b6000806000806060858703121561131b57600080fd5b8435935061132b60208601611162565b9250604085013567ffffffffffffffff81111561134757600080fd5b61135387828801611270565b95989497509550505050565b634e487b7160e01b600052601160045260246000fd5b80820281158282048414176102dd576102dd61135f565b6000826113a957634e487b7160e01b600052601260045260246000fd5b500490565b818103818111156102dd576102dd61135f565b6000602082840312156113d357600080fd5b8151801515811461126957600080fd5b808201808211156102dd576102dd61135f565b634e487b7160e01b600052603260045260246000fdfea2646970667358221220898acf023a490a325a3e8e2a3aa504583e87ba54b295f4dd78656b0fa132324364736f6c63430008180033",
  "linkReferences": {},
  "deployedLinkReferences": {}
}